{
  "contractName": "EIP20Factory",
  "abi": [
    {
      "constant": true,
      "inputs": [
        {
          "name": "",
          "type": "address"
        },
        {
          "name": "",
          "type": "uint256"
        }
      ],
      "name": "created",
      "outputs": [
        {
          "name": "",
          "type": "address"
        }
      ],
      "payable": false,
      "stateMutability": "view",
      "type": "function"
    },
    {
      "constant": true,
      "inputs": [
        {
          "name": "",
          "type": "address"
        }
      ],
      "name": "isEIP20",
      "outputs": [
        {
          "name": "",
          "type": "bool"
        }
      ],
      "payable": false,
      "stateMutability": "view",
      "type": "function"
    },
    {
      "constant": true,
      "inputs": [],
      "name": "EIP20ByteCode",
      "outputs": [
        {
          "name": "",
          "type": "bytes"
        }
      ],
      "payable": false,
      "stateMutability": "view",
      "type": "function"
    },
    {
      "inputs": [],
      "payable": false,
      "stateMutability": "nonpayable",
      "type": "constructor"
    },
    {
      "constant": true,
      "inputs": [
        {
          "name": "_tokenContract",
          "type": "address"
        }
      ],
      "name": "verifyEIP20",
      "outputs": [
        {
          "name": "",
          "type": "bool"
        }
      ],
      "payable": false,
      "stateMutability": "view",
      "type": "function"
    },
    {
      "constant": false,
      "inputs": [
        {
          "name": "_initialAmount",
          "type": "uint256"
        },
        {
          "name": "_name",
          "type": "string"
        },
        {
          "name": "_decimals",
          "type": "uint8"
        },
        {
          "name": "_symbol",
          "type": "string"
        }
      ],
      "name": "createEIP20",
      "outputs": [
        {
          "name": "",
          "type": "address"
        }
      ],
      "payable": false,
      "stateMutability": "nonpayable",
      "type": "function"
    }
  ],
  "bytecode": "0x608060405234801561001057600080fd5b50600061009b6127106040805190810160405280600c81526020017f56657269667920546f6b656e000000000000000000000000000000000000000081525060036040805190810160405280600381526020017f56545800000000000000000000000000000000000000000000000000000000008152506100ca640100000000026401000000009004565b90506100af816401000000006102bd810204565b80516100c3916002916020909101906102e4565b505061038f565b600080858585856100d9610362565b84815260ff83166040820152608060208083018281528651928401929092528551606084019160a08501919088019080838360005b8381101561012657818101518382015260200161010e565b50505050905090810190601f1680156101535780820380516001836020036101000a031916815260200191505b50838103825284518152845160209182019186019080838360005b8381101561018657818101518382015260200161016e565b50505050905090810190601f1680156101b35780820380516001836020036101000a031916815260200191505b509650505050505050604051809103906000f0801580156101d8573d6000803e3d6000fd5b5033600081815260208181526040808320805460018082018355918552838520018054600160a060020a031916600160a060020a038816908117909155808552818452828520805460ff191690921790915581517fa9059cbb0000000000000000000000000000000000000000000000000000000081526004810195909552602485018c905290519495509363a9059cbb93604480820194918390030190829087803b15801561028757600080fd5b505af115801561029b573d6000803e3d6000fd5b505050506040513d60208110156102b157600080fd5b50909695505050505050565b60408051603f833b908101601f191682019092528181529080600060208401853c50919050565b828054600181600116156101000203166002900490600052602060002090601f016020900481019282601f1061032557805160ff1916838001178555610352565b82800160010185558215610352579182015b82811115610352578251825591602001919060010190610337565b5061035e929150610372565b5090565b6040516107868061122883390190565b61038c91905b8082111561035e5760008155600101610378565b90565b610e8a8061039e6000396000f30060806040526004361061006c5763ffffffff7c01000000000000000000000000000000000000000000000000000000006000350416631e5f356981146100715780635f8dead31461013f578063706438d1146101705780637cf62838146101b2578063cd4d68951461023c575b600080fd5b34801561007d57600080fd5b5060408051602060046024803582810135601f810185900485028601850190965285855261011695833595369560449491939091019190819084018382808284375050604080516020601f818a01358b0180359182018390048302840183018552818452989b60ff8b35169b909a90999401975091955091820193509150819084018382808284375094975061026a9650505050505050565b6040805173ffffffffffffffffffffffffffffffffffffffff9092168252519081900360200190f35b34801561014b57600080fd5b5061011673ffffffffffffffffffffffffffffffffffffffff60043516602435610477565b34801561017c57600080fd5b5061019e73ffffffffffffffffffffffffffffffffffffffff600435166104bb565b604080519115158252519081900360200190f35b3480156101be57600080fd5b506101c76104d0565b6040805160208082528351818301528351919283929083019185019080838360005b838110156102015781810151838201526020016101e9565b50505050905090810190601f16801561022e5780820380516001836020036101000a031916815260200191505b509250505060405180910390f35b34801561024857600080fd5b5061019e73ffffffffffffffffffffffffffffffffffffffff6004351661055b565b600080858585856102796106c8565b84815260ff83166040820152608060208083018281528651928401929092528551606084019160a08501919088019080838360005b838110156102c65781810151838201526020016102ae565b50505050905090810190601f1680156102f35780820380516001836020036101000a031916815260200191505b50838103825284518152845160209182019186019080838360005b8381101561032657818101518382015260200161030e565b50505050905090810190601f1680156103535780820380516001836020036101000a031916815260200191505b509650505050505050604051809103906000f080158015610378573d6000803e3d6000fd5b503360008181526020818152604080832080546001808201835591855283852001805473ffffffffffffffffffffffffffffffffffffffff191673ffffffffffffffffffffffffffffffffffffffff8816908117909155808552818452828520805460ff191690921790915581517fa9059cbb0000000000000000000000000000000000000000000000000000000081526004810195909552602485018c905290519495509363a9059cbb93604480820194918390030190829087803b15801561044157600080fd5b505af1158015610455573d6000803e3d6000fd5b505050506040513d602081101561046b57600080fd5b50909695505050505050565b60006020528160005260406000208181548110151561049257fe5b60009182526020909120015473ffffffffffffffffffffffffffffffffffffffff169150829050565b60016020526000908152604090205460ff1681565b6002805460408051602060018416156101000260001901909316849004601f810184900484028201840190925281815292918301828280156105535780601f1061052857610100808354040283529160200191610553565b820191906000526020600020905b81548152906001019060200180831161053657829003601f168201915b505050505081565b60006060600061056a846106a1565b60028054825192945060001961010060018316150201160414610590576000925061069a565b5060005b815181101561069557600280548290600019610100600183161502011682900481106105bc57fe5b8154600116156105db5790600052602060002090602091828204019190065b9054901a7f0100000000000000000000000000000000000000000000000000000000000000027effffffffffffffffffffffffffffffffffffffffffffffffffffffffffffff1916828281518110151561063157fe5b6020910101517f010000000000000000000000000000000000000000000000000000000000000090819004027fff00000000000000000000000000000000000000000000000000000000000000161461068d576000925061069a565b600101610594565b600192505b5050919050565b60408051603f833b908101601f191682019092528181529080600060208401853c50919050565b604051610786806106d9833901905600608060405234801561001057600080fd5b5060405161078638038061078683398101604090815281516020808401518385015160608601513360009081526001855295862085905594849055908501805193959094919391019161006891600391860190610095565b506004805460ff191660ff8416179055805161008b906005906020840190610095565b5050505050610130565b828054600181600116156101000203166002900490600052602060002090601f016020900481019282601f106100d657805160ff1916838001178555610103565b82800160010185558215610103579182015b828111156101035782518255916020019190600101906100e8565b5061010f929150610113565b5090565b61012d91905b8082111561010f5760008155600101610119565b90565b6106478061013f6000396000f3006080604052600436106100ae5763ffffffff7c010000000000000000000000000000000000000000000000000000000060003504166306fdde0381146100b3578063095ea7b31461013d57806318160ddd1461017557806323b872dd1461019c57806327e235e3146101c6578063313ce567146101e75780635c6581651461021257806370a082311461023957806395d89b411461025a578063a9059cbb1461026f578063dd62ed3e14610293575b600080fd5b3480156100bf57600080fd5b506100c86102ba565b6040805160208082528351818301528351919283929083019185019080838360005b838110156101025781810151838201526020016100ea565b50505050905090810190601f16801561012f5780820380516001836020036101000a031916815260200191505b509250505060405180910390f35b34801561014957600080fd5b50610161600160a060020a0360043516602435610348565b604080519115158252519081900360200190f35b34801561018157600080fd5b5061018a6103ae565b60408051918252519081900360200190f35b3480156101a857600080fd5b50610161600160a060020a03600435811690602435166044356103b4565b3480156101d257600080fd5b5061018a600160a060020a03600435166104b8565b3480156101f357600080fd5b506101fc6104ca565b6040805160ff9092168252519081900360200190f35b34801561021e57600080fd5b5061018a600160a060020a03600435811690602435166104d3565b34801561024557600080fd5b5061018a600160a060020a03600435166104f0565b34801561026657600080fd5b506100c861050b565b34801561027b57600080fd5b50610161600160a060020a0360043516602435610566565b34801561029f57600080fd5b5061018a600160a060020a03600435811690602435166105f0565b6003805460408051602060026001851615610100026000190190941693909304601f810184900484028201840190925281815292918301828280156103405780601f1061031557610100808354040283529160200191610340565b820191906000526020600020905b81548152906001019060200180831161032357829003601f168201915b505050505081565b336000818152600260209081526040808320600160a060020a038716808552908352818420869055815186815291519394909390927f8c5be1e5ebec7d5bd14f71427d1e84f3dd0314c0f7b2291e5b200ac8c7c3b925928290030190a350600192915050565b60005481565b600160a060020a0383166000818152600260209081526040808320338452825280832054938352600190915281205490919083118015906103f55750828110155b151561040057600080fd5b600160a060020a038085166000908152600160205260408082208054870190559187168152208054849003905560001981101561046257600160a060020a03851660009081526002602090815260408083203384529091529020805484900390555b83600160a060020a031685600160a060020a03167fddf252ad1be2c89b69c2b068fc378daa952ba7f163c4a11628f55a4df523b3ef856040518082815260200191505060405180910390a3506001949350505050565b60016020526000908152604090205481565b60045460ff1681565b600260209081526000928352604080842090915290825290205481565b600160a060020a031660009081526001602052604090205490565b6005805460408051602060026001851615610100026000190190941693909304601f810184900484028201840190925281815292918301828280156103405780601f1061031557610100808354040283529160200191610340565b3360009081526001602052604081205482111561058257600080fd5b33600081815260016020908152604080832080548790039055600160a060020a03871680845292819020805487019055805186815290519293927fddf252ad1be2c89b69c2b068fc378daa952ba7f163c4a11628f55a4df523b3ef929181900390910190a350600192915050565b600160a060020a039182166000908152600260209081526040808320939094168252919091522054905600a165627a7a72305820da30b9aeda52c9096711dd2c74aadd861fabee664eafbb8b996d9ee594dea7e50029a165627a7a7230582049ae8ca000675bf4dd578822d01fabf1f43ff3c3fdb0452549edaa4c448899ab0029608060405234801561001057600080fd5b5060405161078638038061078683398101604090815281516020808401518385015160608601513360009081526001855295862085905594849055908501805193959094919391019161006891600391860190610095565b506004805460ff191660ff8416179055805161008b906005906020840190610095565b5050505050610130565b828054600181600116156101000203166002900490600052602060002090601f016020900481019282601f106100d657805160ff1916838001178555610103565b82800160010185558215610103579182015b828111156101035782518255916020019190600101906100e8565b5061010f929150610113565b5090565b61012d91905b8082111561010f5760008155600101610119565b90565b6106478061013f6000396000f3006080604052600436106100ae5763ffffffff7c010000000000000000000000000000000000000000000000000000000060003504166306fdde0381146100b3578063095ea7b31461013d57806318160ddd1461017557806323b872dd1461019c57806327e235e3146101c6578063313ce567146101e75780635c6581651461021257806370a082311461023957806395d89b411461025a578063a9059cbb1461026f578063dd62ed3e14610293575b600080fd5b3480156100bf57600080fd5b506100c86102ba565b6040805160208082528351818301528351919283929083019185019080838360005b838110156101025781810151838201526020016100ea565b50505050905090810190601f16801561012f5780820380516001836020036101000a031916815260200191505b509250505060405180910390f35b34801561014957600080fd5b50610161600160a060020a0360043516602435610348565b604080519115158252519081900360200190f35b34801561018157600080fd5b5061018a6103ae565b60408051918252519081900360200190f35b3480156101a857600080fd5b50610161600160a060020a03600435811690602435166044356103b4565b3480156101d257600080fd5b5061018a600160a060020a03600435166104b8565b3480156101f357600080fd5b506101fc6104ca565b6040805160ff9092168252519081900360200190f35b34801561021e57600080fd5b5061018a600160a060020a03600435811690602435166104d3565b34801561024557600080fd5b5061018a600160a060020a03600435166104f0565b34801561026657600080fd5b506100c861050b565b34801561027b57600080fd5b50610161600160a060020a0360043516602435610566565b34801561029f57600080fd5b5061018a600160a060020a03600435811690602435166105f0565b6003805460408051602060026001851615610100026000190190941693909304601f810184900484028201840190925281815292918301828280156103405780601f1061031557610100808354040283529160200191610340565b820191906000526020600020905b81548152906001019060200180831161032357829003601f168201915b505050505081565b336000818152600260209081526040808320600160a060020a038716808552908352818420869055815186815291519394909390927f8c5be1e5ebec7d5bd14f71427d1e84f3dd0314c0f7b2291e5b200ac8c7c3b925928290030190a350600192915050565b60005481565b600160a060020a0383166000818152600260209081526040808320338452825280832054938352600190915281205490919083118015906103f55750828110155b151561040057600080fd5b600160a060020a038085166000908152600160205260408082208054870190559187168152208054849003905560001981101561046257600160a060020a03851660009081526002602090815260408083203384529091529020805484900390555b83600160a060020a031685600160a060020a03167fddf252ad1be2c89b69c2b068fc378daa952ba7f163c4a11628f55a4df523b3ef856040518082815260200191505060405180910390a3506001949350505050565b60016020526000908152604090205481565b60045460ff1681565b600260209081526000928352604080842090915290825290205481565b600160a060020a031660009081526001602052604090205490565b6005805460408051602060026001851615610100026000190190941693909304601f810184900484028201840190925281815292918301828280156103405780601f1061031557610100808354040283529160200191610340565b3360009081526001602052604081205482111561058257600080fd5b33600081815260016020908152604080832080548790039055600160a060020a03871680845292819020805487019055805186815290519293927fddf252ad1be2c89b69c2b068fc378daa952ba7f163c4a11628f55a4df523b3ef929181900390910190a350600192915050565b600160a060020a039182166000908152600260209081526040808320939094168252919091522054905600a165627a7a72305820da30b9aeda52c9096711dd2c74aadd861fabee664eafbb8b996d9ee594dea7e50029",
  "source": "import \"./EIP20.sol\";\n\npragma solidity ^0.4.21;\n\n\ncontract EIP20Factory {\n\n    mapping(address => address[]) public created;\n    mapping(address => bool) public isEIP20; //verify without having to do a bytecode check.\n    bytes public EIP20ByteCode; // solhint-disable-line var-name-mixedcase\n\n    function EIP20Factory() public {\n        //upon creation of the factory, deploy a EIP20 (parameters are meaningless) and store the bytecode provably.\n        address verifiedToken = createEIP20(10000, \"Verify Token\", 3, \"VTX\");\n        EIP20ByteCode = codeAt(verifiedToken);\n    }\n\n    //verifies if a contract that has been deployed is a Human Standard Token.\n    //NOTE: This is a very expensive function, and should only be used in an eth_call. ~800k gas\n    function verifyEIP20(address _tokenContract) public view returns (bool) {\n        bytes memory fetchedTokenByteCode = codeAt(_tokenContract);\n\n        if (fetchedTokenByteCode.length != EIP20ByteCode.length) {\n            return false; //clear mismatch\n        }\n\n      //starting iterating through it if lengths match\n        for (uint i = 0; i < fetchedTokenByteCode.length; i++) {\n            if (fetchedTokenByteCode[i] != EIP20ByteCode[i]) {\n                return false;\n            }\n        }\n        return true;\n    }\n\n    function createEIP20(uint256 _initialAmount, string _name, uint8 _decimals, string _symbol)\n        public\n    returns (address) {\n\n        EIP20 newToken = (new EIP20(_initialAmount, _name, _decimals, _symbol));\n        created[msg.sender].push(address(newToken));\n        isEIP20[address(newToken)] = true;\n        //the factory will own the created tokens. You must transfer them.\n        newToken.transfer(msg.sender, _initialAmount);\n        return address(newToken);\n    }\n\n    //for now, keeping this internal. Ideally there should also be a live version of this that\n    // any contract can use, lib-style.\n    //retrieves the bytecode at a specific address.\n    function codeAt(address _addr) internal view returns (bytes outputCode) {\n        assembly { // solhint-disable-line no-inline-assembly\n            // retrieve the size of the code, this needs assembly\n            let size := extcodesize(_addr)\n            // allocate output byte array - this could also be done without assembly\n            // by using outputCode = new bytes(size)\n            outputCode := mload(0x40)\n            // new \"memory end\" including padding\n            mstore(0x40, add(outputCode, and(add(add(size, 0x20), 0x1f), not(0x1f))))\n            // store length in memory\n            mstore(outputCode, size)\n            // actually retrieve the code, this needs assembly\n            extcodecopy(_addr, add(outputCode, 0x20), 0, size)\n        }\n    }\n}\n",
  "sourcePath": "/media/boubaker/Data/exo_sources/blockchain/exo-ethereum-wallet/exo-ethereum-wallet-contracts/contracts/EIP20Factory.sol",
  "compiler": {
    "name": "solc",
    "version": "0.4.24+commit.e67f0147.Emscripten.clang"
  },
  "schemaVersion": "2.0.1",
  "updatedAt": "2018-07-27T13:24:34.720Z"
}