{
  "contractName": "EATWToken",
  "abi": [
    {
      "constant": true,
      "inputs": [],
      "name": "name",
      "outputs": [
        {
          "name": "",
          "type": "string"
        }
      ],
      "payable": false,
      "stateMutability": "view",
      "type": "function"
    },
    {
      "constant": true,
      "inputs": [],
      "name": "totalSupply",
      "outputs": [
        {
          "name": "",
          "type": "uint256"
        }
      ],
      "payable": false,
      "stateMutability": "view",
      "type": "function"
    },
    {
      "constant": true,
      "inputs": [
        {
          "name": "",
          "type": "address"
        }
      ],
      "name": "balances",
      "outputs": [
        {
          "name": "",
          "type": "uint256"
        }
      ],
      "payable": false,
      "stateMutability": "view",
      "type": "function"
    },
    {
      "constant": true,
      "inputs": [],
      "name": "decimals",
      "outputs": [
        {
          "name": "",
          "type": "uint8"
        }
      ],
      "payable": false,
      "stateMutability": "view",
      "type": "function"
    },
    {
      "constant": true,
      "inputs": [
        {
          "name": "",
          "type": "address"
        },
        {
          "name": "",
          "type": "address"
        }
      ],
      "name": "allowed",
      "outputs": [
        {
          "name": "",
          "type": "uint256"
        }
      ],
      "payable": false,
      "stateMutability": "view",
      "type": "function"
    },
    {
      "constant": true,
      "inputs": [],
      "name": "owner",
      "outputs": [
        {
          "name": "",
          "type": "address"
        }
      ],
      "payable": false,
      "stateMutability": "view",
      "type": "function"
    },
    {
      "constant": true,
      "inputs": [],
      "name": "symbol",
      "outputs": [
        {
          "name": "",
          "type": "string"
        }
      ],
      "payable": false,
      "stateMutability": "view",
      "type": "function"
    },
    {
      "inputs": [
        {
          "name": "_initialAmount",
          "type": "uint256"
        }
      ],
      "payable": false,
      "stateMutability": "nonpayable",
      "type": "constructor"
    },
    {
      "anonymous": false,
      "inputs": [
        {
          "indexed": true,
          "name": "_from",
          "type": "address"
        },
        {
          "indexed": true,
          "name": "_to",
          "type": "address"
        },
        {
          "indexed": false,
          "name": "_value",
          "type": "uint256"
        }
      ],
      "name": "Transfer",
      "type": "event"
    },
    {
      "anonymous": false,
      "inputs": [
        {
          "indexed": true,
          "name": "_owner",
          "type": "address"
        },
        {
          "indexed": true,
          "name": "_spender",
          "type": "address"
        },
        {
          "indexed": false,
          "name": "_value",
          "type": "uint256"
        }
      ],
      "name": "Approval",
      "type": "event"
    },
    {
      "constant": false,
      "inputs": [
        {
          "name": "_to",
          "type": "address"
        },
        {
          "name": "_value",
          "type": "uint256"
        }
      ],
      "name": "transfer",
      "outputs": [
        {
          "name": "success",
          "type": "bool"
        }
      ],
      "payable": false,
      "stateMutability": "nonpayable",
      "type": "function"
    },
    {
      "constant": false,
      "inputs": [
        {
          "name": "_from",
          "type": "address"
        },
        {
          "name": "_to",
          "type": "address"
        },
        {
          "name": "_value",
          "type": "uint256"
        }
      ],
      "name": "transferFrom",
      "outputs": [
        {
          "name": "success",
          "type": "bool"
        }
      ],
      "payable": false,
      "stateMutability": "nonpayable",
      "type": "function"
    },
    {
      "constant": true,
      "inputs": [
        {
          "name": "_owner",
          "type": "address"
        }
      ],
      "name": "balanceOf",
      "outputs": [
        {
          "name": "balance",
          "type": "uint256"
        }
      ],
      "payable": false,
      "stateMutability": "view",
      "type": "function"
    },
    {
      "constant": false,
      "inputs": [
        {
          "name": "_spender",
          "type": "address"
        },
        {
          "name": "_value",
          "type": "uint256"
        }
      ],
      "name": "approve",
      "outputs": [
        {
          "name": "success",
          "type": "bool"
        }
      ],
      "payable": false,
      "stateMutability": "nonpayable",
      "type": "function"
    },
    {
      "constant": true,
      "inputs": [
        {
          "name": "_owner",
          "type": "address"
        },
        {
          "name": "_spender",
          "type": "address"
        }
      ],
      "name": "allowance",
      "outputs": [
        {
          "name": "remaining",
          "type": "uint256"
        }
      ],
      "payable": false,
      "stateMutability": "view",
      "type": "function"
    }
  ],
  "bytecode": "0x60c0604052600360808190527f454057000000000000000000000000000000000000000000000000000000000060a090815261003e91600291906100df565b506003805460ff19166008178155604080518082019091528181527f4540570000000000000000000000000000000000000000000000000000000000602090910190815261008f91600491906100df565b5034801561009c57600080fd5b50604051602080610815833981016040908152905160068054600160a060020a03191633908117909155600090815260208190529190912081905560055561017a565b828054600181600116156101000203166002900490600052602060002090601f016020900481019282601f1061012057805160ff191683800117855561014d565b8280016001018555821561014d579182015b8281111561014d578251825591602001919060010190610132565b5061015992915061015d565b5090565b61017791905b808211156101595760008155600101610163565b90565b61068c806101896000396000f3006080604052600436106100b95763ffffffff7c010000000000000000000000000000000000000000000000000000000060003504166306fdde0381146100be578063095ea7b31461014857806318160ddd1461018057806323b872dd146101a757806327e235e3146101d1578063313ce567146101f25780635c6581651461021d57806370a08231146102445780638da5cb5b1461026557806395d89b4114610296578063a9059cbb146102ab578063dd62ed3e146102cf575b600080fd5b3480156100ca57600080fd5b506100d36102f6565b6040805160208082528351818301528351919283929083019185019080838360005b8381101561010d5781810151838201526020016100f5565b50505050905090810190601f16801561013a5780820380516001836020036101000a031916815260200191505b509250505060405180910390f35b34801561015457600080fd5b5061016c600160a060020a0360043516602435610381565b604080519115158252519081900360200190f35b34801561018c57600080fd5b506101956103e7565b60408051918252519081900360200190f35b3480156101b357600080fd5b5061016c600160a060020a03600435811690602435166044356103ed565b3480156101dd57600080fd5b50610195600160a060020a03600435166104f0565b3480156101fe57600080fd5b50610207610502565b6040805160ff9092168252519081900360200190f35b34801561022957600080fd5b50610195600160a060020a036004358116906024351661050b565b34801561025057600080fd5b50610195600160a060020a0360043516610528565b34801561027157600080fd5b5061027a610543565b60408051600160a060020a039092168252519081900360200190f35b3480156102a257600080fd5b506100d3610552565b3480156102b757600080fd5b5061016c600160a060020a03600435166024356105ad565b3480156102db57600080fd5b50610195600160a060020a0360043581169060243516610635565b6002805460408051602060018416156101000260001901909316849004601f810184900484028201840190925281815292918301828280156103795780601f1061034e57610100808354040283529160200191610379565b820191906000526020600020905b81548152906001019060200180831161035c57829003601f168201915b505050505081565b336000818152600160209081526040808320600160a060020a038716808552908352818420869055815186815291519394909390927f8c5be1e5ebec7d5bd14f71427d1e84f3dd0314c0f7b2291e5b200ac8c7c3b925928290030190a350600192915050565b60055481565b600160a060020a038316600081815260016020908152604080832033845282528083205493835290829052812054909190831180159061042d5750828110155b151561043857600080fd5b600160a060020a038085166000908152602081905260408082208054870190559187168152208054849003905560001981101561049a57600160a060020a03851660009081526001602090815260408083203384529091529020805484900390555b83600160a060020a031685600160a060020a03167fddf252ad1be2c89b69c2b068fc378daa952ba7f163c4a11628f55a4df523b3ef856040518082815260200191505060405180910390a3506001949350505050565b60006020819052908152604090205481565b60035460ff1681565b600160209081526000928352604080842090915290825290205481565b600160a060020a031660009081526020819052604090205490565b600654600160a060020a031681565b6004805460408051602060026001851615610100026000190190941693909304601f810184900484028201840190925281815292918301828280156103795780601f1061034e57610100808354040283529160200191610379565b336000908152602081905260408120548211156105c957600080fd5b3360008181526020818152604080832080548790039055600160a060020a03871680845292819020805487019055805186815290519293927fddf252ad1be2c89b69c2b068fc378daa952ba7f163c4a11628f55a4df523b3ef929181900390910190a350600192915050565b600160a060020a039182166000908152600160209081526040808320939094168252919091522054905600a165627a7a72305820c7c8e78075390bb80d180116385210a8ec2be22a7c2e934f1281f7332ccd78d20029",
  "source": "pragma solidity ^0.4.21;\n\ncontract EATWToken {\n\n    uint256 constant private MAX_UINT256 = 2**256 - 1;\n    mapping (address => uint256) public balances;\n    mapping (address => mapping (address => uint256)) public allowed;\n\n    string public name = 'E@W';\n    uint8 public decimals = 8;\n    string public symbol = 'E@W';\n    uint256 public totalSupply;\n    address public owner;\n\n    constructor(uint256 _initialAmount) public {\n        owner = msg.sender;\n        balances[msg.sender] = _initialAmount;\n        totalSupply = _initialAmount;\n    }\n\n    function transfer(address _to, uint256 _value) public returns (bool success) {\n        require(balances[msg.sender] >= _value);\n        balances[msg.sender] -= _value;\n        balances[_to] += _value;\n        emit Transfer(msg.sender, _to, _value);\n        return true;\n    }\n\n    function transferFrom(address _from, address _to, uint256 _value) public returns (bool success) {\n        uint256 allowance = allowed[_from][msg.sender];\n        require(balances[_from] >= _value && allowance >= _value);\n        balances[_to] += _value;\n        balances[_from] -= _value;\n        if (allowance < MAX_UINT256) {\n            allowed[_from][msg.sender] -= _value;\n        }\n        emit Transfer(_from, _to, _value);\n        return true;\n    }\n\n    function balanceOf(address _owner) public view returns (uint256 balance) {\n        return balances[_owner];\n    }\n\n    function approve(address _spender, uint256 _value) public returns (bool success) {\n        allowed[msg.sender][_spender] = _value;\n        emit Approval(msg.sender, _spender, _value);\n        return true;\n    }\n\n    function allowance(address _owner, address _spender) public view returns (uint256 remaining) {\n        return allowed[_owner][_spender];\n    }\n\n    event Transfer(address indexed _from, address indexed _to, uint256 _value);\n    event Approval(address indexed _owner, address indexed _spender, uint256 _value);\n}\n",
  "sourcePath": "/media/boubaker/Data/exo_sources/blockchain/exo-ethereum-wallet/exo-ethereum-wallet-contracts/contracts/EATWToken.sol",
  "compiler": {
    "name": "solc",
    "version": "0.4.24+commit.e67f0147.Emscripten.clang"
  },
  "schemaVersion": "2.0.1",
  "updatedAt": "2018-07-30T13:46:22.434Z"
}